:100000000C945E000C9419080C94F2070C94860072
:100010000C9486000C9486000C9440080C94860086
:100020000C9486000C9486000C9486000C94860038
:100030000C9486000C9486000C9486000C94860028
:100040000C94A8070C9486000C9476070C94500727
:100050000C9486000C9486000C9486000C94860008
:100060000C9486000C948600000000080002010039
:100070000003040700000000000000000000000072
:10008000250028002B0000000000240027002A0083
:10009000040404040404040402020202020203032E
:1000A0000303030301020408102040800102040836
:1000B00010200102040810205708C10B11241FBE94
:1000C000CFEFD8E0DEBFCDBF22E0A2E9B1E001C0B2
:1000D0001D92AC39B207E1F711E0A0E0B1E0E4E82D
:1000E000FCE102C005900D92A239B107D9F710E0EA
:1000F000CDE5D0E004C02197FE010E94230CCC3551
:10010000D107C9F70E94A7080C94350E0C94000083
:1001100090E0FC01EC55FF4F249180579F4FFC016C
:100120008491882399F090E0880F991FFC01EA5789
:10013000FF4FA591B491FC01E458FF4F8591949134
:100140008FB7F894EC91E22BEC938FBF089581E088
:10015000809395010895AF92BF92CF92DF92EF9274
:10016000FF920F931F93CF93DF936C017B018B0161
:10017000040F151FEB015E01AE18BF08C017D107B1
:1001800059F06991D601ED91FC910190F081E02D3B
:10019000C6010995892B79F7C501DF91CF911F9190
:1001A0000F91FF90EF90DF90CF90BF90AF900895A8
:1001B000FC01538D448D252F30E0842F90E0821B6D
:1001C000930B541710F0CF96089501970895FC01F2
:1001D000918D828D981761F0A28DAE0FBF2FB11D4A
:1001E0005D968C91928D9F5F9F73928F90E00895A2
:1001F0008FEF9FEF0895FC01918D828D981731F05C
:10020000828DE80FF11D858D90E008958FEF9FEFAF
:100210000895FC01918D228D892F90E0805C9F4F85
:10022000821B91098F739927089586EE91E00E94B1
:10023000090121E0892B09F420E0822F089580E054
:1002400090E0892B29F00E94150181110C94000087
:100250000895FC01A48DA80FB92FB11DA35ABF4F5B
:100260002C91848D90E001968F739927848FA689B5
:10027000B7892C93A089B1898C91837080648C9309
:10028000938D848D981306C00288F389E02D8081B8
:100290008F7D80830895EF92FF920F931F93CF93EA
:1002A000DF93EC0181E0888F9B8D8C8D98131AC0B1
:1002B000E889F989808185FF15C09FB7F894EE8998
:1002C000FF896083E889F9898081837080648083F5
:1002D0009FBF81E090E0DF91CF911F910F91FF9040
:1002E000EF900895F62E0B8D10E00F5F1F4F0F73E8
:1002F0001127E02E8C8D8E110CC00FB607FCFACFA3
:10030000E889F989808185FFF5CFCE010E94290116
:10031000F1CFEB8DEC0FFD2FF11DE35AFF4FF08273
:100320009FB7F8940B8FEA89FB8980818062CFCFD9
:10033000CF93DF93EC01888D8823B9F0AA89BB891C
:10034000E889F9898C9185FD03C0808186FD0DC007
:100350000FB607FCF7CF8C9185FFF2CF808185FF28
:10036000EDCFCE010E942901E9CFDF91CF91089511
:1003700090E0FC01E859FF4F2491FC01EC55FF4F40
:100380003491FC01E057FF4FE491EE23C9F02223A2
:1003900039F0233001F1A8F4213019F1223029F18C
:1003A000F0E0EE0FFF1FE458FF4FA591B4918FB717
:1003B000F894EC91611126C030953E233C938FBF99
:1003C00008952730A9F02830C9F0243049F78091EA
:1003D00080008F7D03C0809180008F7780938000A4
:1003E000DFCF84B58F7784BDDBCF84B58F7DFBCF26
:1003F0008091B0008F778093B000D2CF8091B00011
:100400008F7DF9CF3E2BDACF3FB7F89480919B01D7
:1004100090919C01A0919D01B0919E0126B5A89B51
:1004200005C02F3F19F00196A11DB11D3FBFBA2F86
:10043000A92F982F8827BC01CD01620F711D811D46
:10044000911D42E0660F771F881F991F4A95D1F7CB
:1004500008952FB7F8946091970170919801809159
:10046000990190919A012FBF08950895CF93DF933A
:10047000EC0161E08A810E94B8018A858CBD8B8580
:100480008DBDDF91CF910895FC018CB582878DB52C
:100490008387948585859CBD8DBD60E082810C94A9
:1004A000B8014F925F926F927F929F92AF92BF92EC
:1004B000CF92DF92EF92FF920F931F93CF93DF9330
:1004C00000D000D000D0CDB7DEB79E838D836B0106
:1004D0005A01122FF02E912C2E2D30E050E040E0EA
:1004E00029833A834B835C83AD81BE81ED91FC917E
:1004F00011970190F081E02D01E0212FA501B601B7
:10050000CD0109950E9429022B013C010E9429027C
:10051000641975098609970929813A814B815C81A3
:10052000621773078407950780F5AD81BE81ED9151
:10053000FC9111970480F581E02DCD010995882368
:1005400029F32091E4013091E501C216D30619F098
:10055000C114D104D9F6909193019923B9F226964A
:100560000FB6F894DEBF0FBECDBFDF91CF911F91C4
:100570000F91FF90EF90DF90CF90BF90AF909F9042
:100580007F906F905F904F9008959394F91408F0C6
:10059000ABCF80E0E4CF08958EBD00000DB407FE20
:1005A000FDCF8EB508950F931F93CF93DF93EC018A
:1005B000062F142FE881F9810688F789E02D099527
:1005C000802F80680E94CC02812F0E94CC02E8819B
:1005D000F981008CF18DE02DCE01DF91CF911F913B
:1005E0000F9109941F93CF93DF93EC01162F45E5EC
:1005F00061114DE56AE5CE010E94D30240E7111179
:100600004CE76CE5CE01DF91CF911F910C94D302A2
:100610001F93CF93DF93EC01162FE881F9810688B1
:10062000F789E02D0995812F0E94CC0280E00E947D
:10063000CC02182FE881F981008CF18DE02DCE01DC
:100640000995812FDF91CF911F910895CF93DF936B
:10065000EC0169874AE161114FE063E1CE010E943C
:10066000D3028985882369F061E1CE010E940803E5
:100670008F71482F406661E1CE01DF91CF910C94DC
:10068000D30248854068F7CFCF93DF93EC011092F7
:10069000A3011092E5011092E4011092A1011092C1
:1006A000A001109294011092A20110929301109255
:1006B000A5011092A40168E20E94080382FF0AC00B
:1006C0006DE3CE010E940803482F44606DE3CE0124
:1006D0000E94D30240E465E2CE010E94D302E88189
:1006E000F9810288F389E02D63E0CE01DF91CF919B
:1006F0000994CF93DF93EC01603208F06FE16887D3
:100700008985882311F06695688761E1CE010E9492
:100710000803807E4885482B61E1CE01DF91CF91AF
:100720000C94D3021F93CF93DF932091830226175B
:1007300061F0162FEC01623009F445C050F46623D5
:1007400009F453C0613009F449C0DF91CF911F9182
:100750000895633021F16430C1F761E00E9408031D
:10076000837E482F4C6061E0CE010E94D3028985D0
:10077000882341F0E881F9810488F589E02D61E062
:10078000CE01099580918302811106C067E2CE01F6
:100790000E94080387FFF6CF10938302D6CF61E053
:1007A0000E940803837E482F406161E0CE010E94D1
:1007B000D3028985882331F3E881F9810488F5899A
:1007C000E02D60E0DDCF61E00E940803837E482FCA
:1007D000486061E0CE010E94D302D4CF61E00E9464
:1007E0000803837E482F4460F4CF61E00E94080331
:1007F000482F437EEECFEF92FF920F931F93CF933C
:10080000DF93EC0161E084E892E00E94920320977C
:10081000C1F084E892E00E9444028EEB0E94CC0278
:100820008E017E0180E1E80EF11CF80181918F01BB
:100830000E94CC020E151F05C1F784E892E00E94C9
:1008400036026DE384E892E00E9408038E7F41E067
:10085000CD2B09F440E0482B6DE384E892E0DF9172
:10086000CF911F910F91FF90EF900C94D302AF9214
:10087000BF92CF92DF92EF92FF920F931F93CF938D
:10088000DF93EC016B01B42EA52EF22E102FE88120
:10089000F9810288F389E02D61E0099567E2CE01D4
:1008A0000E94080387FFFACF0F2D0E3308F00DE3E7
:1008B000E1103DC01123E9F110E48FEFC816D10417
:1008C00049F040F0C60126E0969587952A95E1F714
:1008D0008C70182B8D819E818F3F910521F018F02F
:1008E000892F8370182BE881F9810688F789E02D1C
:1008F000CE01099580E80E94CC0283E0800F0E941F
:10090000CC028C2D0E94CC028D810E94CC02812FC2
:100910000E94CC021B2DEB2CFA2C8E2D811B8017F4
:1009200050F4F70181917F010E94CC02F6CF10E8CC
:10093000C4CF10E0C2CFE881F981008CF18DE02DA9
:10094000CE010995E881F9810288F389E02D64E000
:10095000CE01099568E2CE010E94080383FFFACF19
:10096000E881F9810288F389E02D61E0CE01DF9111
:10097000CF911F910F91FF90EF90DF90CF90BF909C
:10098000AF900994EF92FF920F931F93CF93DF9351
:10099000EC0180919501882309F468C0809183025D
:1009A00010929501833009F0AEC068E2CE010E943A
:1009B000080382FFA8C0E881F9810288F389E02D4D
:1009C00061E0CE010995E881F9810688F789E02D7B
:1009D000CE01099580E00E94CC0280E00E94CC020A
:1009E000082F182F833408F012E41093940180E04C
:1009F0000E94CC02E82E80E00E94CC02F82E80E01B
:100A00000E94CC02282F30E0A90166E0440F551F58
:100A10006A95E1F7442753704E295093A101409302
:100A2000A001322F2227222733702F293093E5018E
:100A30002093E4019F81E881F981911107C02D8104
:100A40003E814217530711F0452B11F4033040F556
:100A500010929401008CF18DE02DCE010995E88172
:100A6000F9810088F189E02DCE01099580918302FA
:100A7000833009F057C080919401882309F459C04C
:100A8000E881F9810288F389E02D61E0CE010995C2
:100A900081E0DF91CF911F910F91FF90EF9008952A
:100AA00013501093A301982F907890939301982F4F
:100AB00090749093A2010484F585E02D682FCE01F7
:100AC000099510E0E091A3011E1750F480E00E9408
:100AD000CC02E12FF0E0EA55FE4F80831F5FF2CF9A
:100AE000F0E0EA55FE4F1082E881F981008CF18D2B
:100AF000E02DCE010995E881F9810288F389E02D86
:100B000063E0CE01099564E2CE010E94080390E003
:100B1000919581959109959587959093A5018093DD
:100B2000A401A4CFE881F9810088F189E02DCE01EC
:100B3000099580E0AECFCF93DF93209183022330DD
:100B400021F080E0DF91CF9108952091940121114F
:100B5000F8CFEC0164E20E94080390E09195819542
:100B600091098C349F4F6CF7E881F9810288F389F1
:100B7000E02D61E0CE01099581E0E4CF4F925F92D4
:100B80006F927F928F929F92AF92BF92CF92DF929D
:100B9000EF920F931F93CF93DF93EC014B01142F30
:100BA0001092A201C090E401D090E501A090A401B0
:100BB000B090A5016DE30E940803482F44606DE3E7
:100BC000CE010E94D3020E9429022B013C01CE01DA
:100BD0000E949B05811113C00E94290264197509A6
:100BE00086099709683E73408105910540F4E881C4
:100BF000F9810480F581E02DCE010995E8CFD092EE
:100C0000E501C092E401E881F9810684F785E02DD1
:100C1000EE24E39400E0212FA401B601CE01099552
:100C2000B092A501A092A401DF91CF911F910F91E5
:100C3000EF90DF90CF90BF90AF909F908F907F907C
:100C40006F905F904F9008954F925F926F927F9256
:100C5000AF92BF92CF92DF92EF920F931F93CF93F9
:100C6000DF93EC016B015A01122F6DE30E94080320
:100C7000482F44606DE3CE010E94D3020E942902F6
:100C80002B013C01CE010E949B05811113C00E94E3
:100C900029026419750986099709683E7340810520
:100CA000910540F4E881F9810480F581E02DCE01C1
:100CB0000995E8CFE881F9810684F785E02DE12CDC
:100CC000212FA501B601CE010995DF91CF911F918A
:100CD0000F91EF90DF90CF90BF90AF907F906F908B
:100CE0005F904F900895FC0101900020E9F7319743
:100CF000AF01481B590BBC0186EE91E00C94AB0090
:100D00008F929F92AF92BF920F931F93CF93DF93D7
:100D1000CDB7DEB7A1970FB6F894DEBF0FBECDBF3B
:100D200019A2423008F44AE08E010F5D1F4F842E55
:100D3000912CB12CA12CA50194010E94010CE62F4D
:100D4000B901CA01EA30F4F4E05DD801EE938D01F7
:100D5000232B242B252B79F790E080E0109719F0B6
:100D6000CD010E947306A1960FB6F894DEBF0FBEA8
:100D7000CDBFDF91CF911F910F91BF90AF909F900A
:100D80008F900895E95CE1CFCF92DF92EF92FF92CE
:100D9000CF93DF936B017C016DE286EE91E00E94C0
:100DA0004B01EC0166277727CB016C197D098E0971
:100DB0009F094AE00E9480068C0F9D1FDF91CF9112
:100DC000FF90EF90DF90CF900895CF93DF93BC0119
:100DD000990F880B990B97FF0CC00E94C406EC0179
:100DE0008AE391E00E9473068C0F9D1FDF91CF91E3
:100DF00008954AE00E948006F2CF0F931F93CF938D
:100E0000DF93EC0188819981009759F02A813B8119
:100E10002617370730F081E0DF91CF911F910F91B6
:100E200008958B016F5F7F4F0E944E0D009759F020
:100E3000998388831B830A832C813D81232B59F757
:100E4000FC011082E8CF80E0E7CFEF92FF920F9392
:100E50001F93CF93DF93EC017B018A01BA010E94BB
:100E6000FD0628813981811114C02115310519F041
:100E7000C9010E94C50C198218821D821C821B8226
:100E80001A82CE01DF91CF911F910F91FF90EF90C9
:100E900008951D830C83B701C9010E94140EF1CF80
:100EA0001F920F920FB60F9211242F933F934F93DF
:100EB0005F936F937F938F939F93AF93BF93EF93C2
:100EC000FF9386EE91E00E942901FF91EF91BF917F
:100ED000AF919F918F917F916F915F914F913F91D2
:100EE0002F910F900FBE0F901F9018951F920F9289
:100EF0000FB60F9211242F938F939F93EF93FF932D
:100F0000E091F601F091F7018081E091FC01F09110
:100F1000FD0182FD1BC090818091FF018F5F8F7367
:100F200020910002821741F0E091FF01F0E0EA51C8
:100F3000FE4F958F8093FF01FF91EF919F918F91CD
:100F40002F910F900FBE0F901F9018958081F4CFB6
:100F50001F920F920FB60F9211242F933F938F93EE
:100F60009F93AF93BF938091970190919801A09127
:100F70009901B0919A013091960123E0230F2D370A
:100F800058F50196A11DB11D2093960180939701FC
:100F900090939801A0939901B0939A0180919B013D
:100FA00090919C01A0919D01B0919E010196A11D7F
:100FB000B11D80939B0190939C01A0939D01B093E0
:100FC0009E01BF91AF919F918F913F912F910F9073
:100FD0000FBE0F901F90189526E8230F0296A11DB3
:100FE000B11DD2CF1F920F920FB60F9211242F93E3
:100FF0003F934F935F936F937F938F939F93AF93A1
:10100000BF93EF93FF93E0910201F09103010995E3
:10101000FF91EF91BF91AF919F918F917F916F91D0
:101020005F914F913F912F910F900FBE0F901F90A6
:1010300018951F920F920FB60F9211242F933F9382
:101040004F935F936F937F938F939F93AF93BF93D0
:10105000EF93FF93E0910001F09101010995FF9159
:10106000EF91BF91AF919F918F917F916F915F9120
:101070004F913F912F910F900FBE0F901F90189599
:101080001F920F920FB60F9211248F930FB6F89400
:10109000A895809160008861809360001092600044
:1010A0000FBE8F910F900FBE0F901F901895E6EE18
:1010B000F1E01382128288EE93E0A0E0B0E0848336
:1010C0009583A683B7838EE091E09183808385EC3E
:1010D00090E09587848784EC90E09787868780EC02
:1010E00090E0918B808B81EC90E0938B828B82ECF3
:1010F00090E0958B848B86EC90E0978B868B118E9D
:10110000128E138E148EE2E9F2E0118210821382A5
:1011100012821582148250E040E06CE371E0CF014E
:101120000E942507E4E8F2E080E291E09183808369
:1011300080E5848715868EE0828385E0838381E065
:101140008093830217829FE1908781870895CF93D0
:10115000DF93CDB7DEB7AE970FB6F894DEBF0FBE04
:10116000CDBF789484B5826084BD84B5816084BD30
:1011700085B5826085BD85B5816085BD80916E0035
:10118000816080936E001092810080918100826066
:1011900080938100809181008160809381008091A3
:1011A00080008160809380008091B1008460809392
:1011B000B1008091B00081608093B00080917A008E
:1011C000846080937A0080917A00826080937A00B4
:1011D00080917A00816080937A0080917A008068A3
:1011E00080937A001092C1008FE00E948800E09105
:1011F000F601F091F70182E08083E091F201F09135
:10120000F3011082E091F401F091F50180E1808317
:101210001092FE01E091FA01F091FB0186E08083DB
:10122000E091F801F091F901808180618083E09183
:10123000F801F091F901808188608083E091F801E4
:10124000F091F901808180688083E091F801F0914C
:10125000F90180818F7D808380918702823009F43B
:10126000DCC0833009F4DBC08FEF80938802FE017D
:1012700033968CE2DF011D928A95E9F781E089833C
:1012800094E09A8322E02B8383E08D832E839F83D7
:1012900020E4288795E099878A8786E08B8783E317
:1012A0008C8787E08D8798E09F8799E0998B99E1FB
:1012B0009B8B92E49C8B35E23D8B2E8B26E22F8B11
:1012C000888F88E2898F80E18A8F89E28B8F8CED0D
:1012D0008C8F8EE28D8F88E88E8F8FE28F8F8DE2DC
:1012E00088A380E389A327E32BA320E92CA328E389
:1012F0002DA39EA39CE39FA39FE898A79DE399A796
:1013000092E19AA79FE69BA78CA78FEF8DA784EE0B
:101310008E8780EC888B84E68AA361E080918602C8
:101320000E94B801809186020E9488001FB7F8943D
:1013300080919F01811124C0EAE9F0E08491EEEAF6
:10134000F0E09491E82FF0E0EE0FFF1FEA57FF4F17
:10135000A591B491EC91E92321F461E08AE00E9427
:10136000B8018AE00E9488008CB580618CBD8CB584
:1013700080648CBD8DE00E9488008BE00E94880014
:1013800080919F018F5F80939F011FBF80E58093B5
:101390009002109291020E9429024B015C014AEADC
:1013A0006FE284E892E00E94D3026FE284E892E068
:1013B0000E9408038A3A59F00E94290268197909A3
:1013C0008A099B09623371058105910540F30E94EA
:1013D00029024B015C0145E56FE284E892E00E943E
:1013E000D3026FE284E892E00E9408038535C9F4D5
:1013F00010E0E12FF0E0EE0FFF1F21E030E02C0FB6
:101400003D1FE20FF31F60816F3FB9F0418184E817
:1014100092E00E94D3021F5FECCF80E026CF81E0F4
:1014200024CF0E942902681979098A099B0962332D
:1014300071058105910578F2DBCF90E080E00E9494
:10144000FB0360918D0284E892E00E94260361E034
:1014500084E892E00E9492030E9429024B015C0101
:1014600067E284E892E00E94080387FD0BC00E94B7
:101470002902681979098A099B0962337105810576
:10148000910570F30E942902681979098A099B095C
:101490006233710581059105E8F4809188028230FC
:1014A00098F4E82FF0E0EE0FFF1FE050FF4F27EA1F
:1014B00030E031832083813009F44BC18091690091
:1014C000836080936900E89A82E090E090938A02BA
:1014D0008093890261E084E892E00E9426038DE314
:1014E00091E00E94FB038EE00E94880082E00E944F
:1014F000880061E08EE00E94B80160E082E00E9416
:10150000B80140E0C42E40E0D42E8EE491E00E9469
:10151000730684E892E00E949B0590E00E94E50635
:1015200089E591E00E94730664E284E892E00E94FB
:10153000080390E0919581959109959587950E9472
:10154000E5063EE1E32E02E022E040E651E061E004
:1015500070E084E892E00E94510283E691E00E94EC
:1015600073068AE391E00E9473061A8219821C8234
:101570001B821E821D8241E050E06EE671E0CE01CA
:1015800001960E9425078091960290919702A9806A
:10159000BA80892B09F4E4C0009192021091930261
:1015A000B501C8010E941B0E009709F4D9C0DC01E7
:1015B000A01BB10B8D01A114B10419F0C5010E944B
:1015C000C50C0F3F1F4FA1F161E08FE00E94B801F1
:1015D0000E9404024B015C0184E6482E512C612CD0
:1015E000712C0E940402681979098A099B09683ED6
:1015F000734081059105A8F321E0421A5108610862
:10160000710838EE830E33E0931EA11CB11C411407
:1016100051046104710429F760E08FE00E94B80171
:1016200080E791E00E9473068AE391E00E947306CE
:1016300070E060E082E992E00E94FD062091920253
:101640003091930281118FC02115310519F0C90124
:101650000E94C50C1092930210929202109297026F
:1016600010929602109295021092940284E892E0F1
:101670000E94C204882309F458C06BE586EE91E00D
:101680000E944B016091E4017091E50190E080E0DF
:101690004AE00E94800684E791E00E94730686EA91
:1016A00091E00E94730687E791E00E9473066091C3
:1016B000A4017091A501072E000C880B990B97FFD0
:1016C0005CC00E94C40684E891E00E9473068AE32D
:1016D00091E00E9473068091A301823061F48091B1
:1016E000A601883441F48091A701893621F461E094
:1016F0008FE00E94B8018091A2018823B1F020916F
:10170000890230918A028091A0019091A10128174D
:10171000390759F440E06CE371E084E892E00E94FC
:10172000BE0586E891E00E94730684E892E00E947C
:10173000C20486EE91E00E949801C114D10409F41C
:10174000E4CE0E941501882309F4DFCE0E94000038
:10175000DCCE809169008C6080936900E99AB4CEF8
:101760000FEF1FEF28CF10929702109296026CE3B2
:1017700071E0C9010E94140E79CF4AE00E948006F0
:10178000A2CF8091920290919302009711F00C9455
:10179000C50C08952F923F924F925F926F927F9265
:1017A0008F929F92AF92BF92CF92DF92EF92FF9271
:1017B0000F931F93CF93DF93CDB7DEB7CA1BDB0B1D
:1017C0000FB6F894DEBF0FBECDBF09942A883988C2
:1017D00048885F846E847D848C849B84AA84B984C9
:1017E000C884DF80EE80FD800C811B81AA81B981D5
:1017F000CE0FD11D0FB6F894DEBF0FBECDBFED01E9
:101800000895A1E21A2EAA1BBB1BFD010DC0AA1F41
:10181000BB1FEE1FFF1FA217B307E407F50720F059
:10182000A21BB30BE40BF50B661F771F881F991FD4
:101830001A9469F760957095809590959B01AC011D
:10184000BD01CF010895EE0FFF1F0590F491E02D2B
:1018500009940F931F93CF93DF938230910510F477
:1018600082E090E0E0919A02F0919B0230E020E06B
:10187000B0E0A0E0309799F42115310509F44AC091
:10188000281B390B24303105D8F58A819B816115DD
:10189000710589F1FB0193838283FE0111C04081B0
:1018A00051810281138148175907E0F04817590701
:1018B00099F4109761F012960C93129713961C935B
:1018C0003296CF01DF91CF911F910F910895009330
:1018D0009A0210939B02F4CF2115310551F0421763
:1018E000530738F0A901DB019A01BD01DF01F801BE
:1018F000C1CFEF01F9CF90939B0280939A02CDCF95
:10190000FE01E20FF31F8193919322503109398335
:101910002883D7CF2091980230919902232B41F44C
:10192000209106013091070130939902209398028B
:1019300020910401309105012115310541F42DB7A5
:101940003EB74091080150910901241B350BE091ED
:101950009802F0919902E217F307A0F42E1B3F0BB7
:101960002817390778F0AC014E5F5F4F2417350711
:1019700048F04E0F5F1F5093990240939802819355
:1019800091939FCFF0E0E0E09CCFCF93DF9300975F
:10199000E9F0FC01329713821282A0919A02B09171
:1019A0009B02ED0130E020E01097A1F4208131810D
:1019B000820F931F209198023091990228173907BE
:1019C00009F061C0F0939902E0939802DF91CF9102
:1019D0000895EA01CE17DF07E8F54A815B819E0191
:1019E00041155105B1F7E901FB83EA83499159910A
:1019F000C40FD51FEC17FD0761F480819181029619
:101A0000840F951FE90199838883828193819B8349
:101A10008A83F0E0E0E012968D919C9113970097F5
:101A2000B9F52D913C911197CD010296820F931F2C
:101A300020919802309199022817390739F630978A
:101A400051F510929B0210929A02B0939902A093C2
:101A50009802BCCFD383C28340815181840F951FEC
:101A6000C817D90761F44E5F5F4F88819981480F8D
:101A7000591F518340838A819B81938382832115DF
:101A8000310509F0B0CFF0939B02E0939A029ECF0C
:101A9000FD01DC01C0CF13821282D7CFB0E0A0E0FD
:101AA000E4E5FDE00C94CC0B8C01009751F4CB01E4
:101AB0000E94290C8C01C801CDB7DEB7E0E10C947F
:101AC000E80BFC01E60FF71F9C0122503109E217D9
:101AD000F30708F49DC0D901CD91DC911197C61789
:101AE000D70798F0C530D10530F3CE01049786179B
:101AF000970708F3C61BD70B2297C193D1936D9319
:101B00007C93CF010E94C50CD6CF5B01AC1ABD0AF5
:101B10004C018C0E9D1EA0919A02B0919B02512CFB
:101B2000412CF12CE12C109731F580919802909185
:101B300099028815990509F05CC04616570608F009
:101B400058C08091040190910501009741F48DB730
:101B50009EB74091080150910901841B950BE8172D
:101B6000F90708F055C0F0939902E0939802F90143
:101B700071836083A0CF8D919C91119712966C9088
:101B8000129713967C901397A815B90559F56C0117
:101B900042E0C40ED11CCA14DB0420F1AC014A1986
:101BA0005B09DA011296159780F062827382518385
:101BB0004083D9016D937C93E114F10471F0D70156
:101BC0001396FC93EE93129776CF22968C0F9D1F5F
:101BD000F90191838083F301EFCFF0939B02E093AF
:101BE0009A0269CF4816590608F42C017D01D301E9
:101BF0009ACFCB010E94290C7C01009749F0AE01DD
:101C0000B8010E940B0EC8010E94C50C870153CF7A
:101C100010E000E050CFFB01DC0102C001900D920A
:101C200041505040D8F70895FB01DC0101900D921E
:101C30000020E1F70895FB0151915523A9F0BF0160
:101C4000DC014D9145174111E1F759F4CD010190A7
:101C5000002049F04D9140154111C9F3FB0141119C
:101C6000EFCF81E090E00197089510E0CDE5D0E05E
:101C700004C0FE010E94230C2196CE35D107C9F77E
:041C8000F894FFCF06
:101C84003502350200009C028000000000004B0178
:101C9400AB00D80098010901E700FB000000000038
:101CA40024065102C204BE0526037903CB0237047D
:101CB40044039203F202440236020D0A0073616D7A
:101CC400706C65456E63727970744B65790043611D
:101CD4006E2053656E643F2000525353493A2000EE
:101CE40048690048492053656E742E2E2E007700F3
:101CF4004F4646005D20002020205B52585F52531F
:101D040053493A005D00202D2041434B2073656EFA
:021D1400740059
:00000001FF
