:100000000C945E000C943A030C9413030C94860039
:100010000C9486000C9486000C9461030C9486006A
:100020000C9486000C9486000C9486000C94860038
:100030000C9486000C9486000C9486000C94860028
:100040000C94C9020C9486000C9489010C946301F1
:100050000C9486000C9486000C9486000C94860008
:100060000C9486000C948600000000080002010039
:100070000003040700000000000000000000000072
:10008000250028002B0000000000240027002A0083
:10009000040404040404040402020202020203032E
:1000A0000303030301020408102040800102040836
:1000B0001020010204081020380CEB0811241FBE88
:1000C000CFEFD8E0DEBFCDBF22E0A6E9B1E001C0AE
:1000D0001D92A03AB207E1F711E0A0E0B1E0E2E240
:1000E000FEE102C005900D92A639B107D9F710E0E4
:1000F000CDE5D0E004C02197FE010E94D80CCC359C
:10010000D107C9F70E94F1080C94040F0C94000069
:10011000089580E090E00895FC01538D448D252FD3
:1001200030E0842F90E0821B930B541710F0CF9691
:10013000089501970895FC01918D828D981761F0C3
:10014000828DDF01A80FB11D5D968C91928D9F5F0E
:100150009F73928F90E008958FEF9FEF0895FC01B9
:10016000918D828D981731F0828DE80FF11D858D6C
:1001700090E008958FEF9FEF0895FC01918D228DFF
:10018000892F90E0805C9F4F821B91098F73992784
:100190000895FC01848DDF01A80FB11DA35ABF4F44
:1001A0002C91848D90E001968F739927848FA68976
:1001B000B7892C93A089B1898C9180648C93938D9D
:1001C000848D981306C00288F389E02D80818F7D8D
:1001D00080830895EF92FF920F931F93CF93DF9345
:1001E000EC0181E0888F9B8D8C8D981305C0E88988
:1001F000F989808185FD24C0F62E0B8D10E00F5FFC
:100200001F4F0F731127E02E8C8DE8120CC00FB614
:1002100007FCFACFE889F989808185FFF5CFCE0107
:100220000E94C900F1CF8B8DFE01E80FF11DE35A4A
:10023000FF4FF0820B8FEA89FB898081806207C0C3
:10024000EE89FF896083E889F989808180648083F1
:1002500081E090E0DF91CF911F910F91FF90EF909F
:100260000895CF93DF93EC01888D8823C9F0EA8944
:10027000FB89808185FD05C0A889B9898C9186FD9F
:100280000FC00FB607FCF5CF808185FFF2CFA8899C
:10029000B9898C9185FFEDCFCE010E94C900E7CFCF
:1002A000DF91CF91089580E090E0892B29F00E94A2
:1002B000350781110C9400000895089581E0809322
:1002C0009901089508951F920F920FB60F9211246D
:1002D0002F933F934F935F936F937F938F939F934E
:1002E000AF93BF93EF93FF938AEE91E00E94C90012
:1002F000FF91EF91BF91AF919F918F917F916F91FE
:100300005F914F913F912F910F900FBE0F901F90D3
:1003100018951F920F920FB60F9211242F938F935F
:100320009F93EF93FF93E091FA01F091FB0180819D
:10033000E0910002F091010282FD12C09081809153
:1003400003028F5F8F7320910402821751F0E091B6
:100350000302F0E0E651FE4F958F8093030201C047
:100360008081FF91EF919F918F912F910F900FBE00
:100370000F901F90189590E0FC01E859FF4F3491C1
:10038000FC01EC55FF4F2491FC01E057FF4FE49135
:10039000EE2309F43BC0332339F1333091F038F4C4
:1003A0003130A9F0323001F584B58F7D12C037307D
:1003B00091F03830A1F03430B9F4809180008F7D15
:1003C00003C0809180008F77809380000DC084B53A
:1003D0008F7784BD09C08091B0008F7703C0809172
:1003E000B0008F7D8093B000F0E0EE0FFF1FE45867
:1003F000FF4FA591B4918FB7F894EC91611103C0B0
:1004000020952E2301C02E2B2C938FBF0895CF93C0
:10041000DF93EC0161E08A810E94BB018A858CBD7B
:100420008B858DBDDF91CF910895FC018CB58287BE
:100430008DB58387948585859CBD8DBD60E0828167
:100440000C94BB013FB7F89480919F019091A0015B
:10045000A091A101B091A20126B5A89B05C02F3F94
:1004600019F00196A11DB11D3FBFBA2FA92F982FDA
:100470008827820F911DA11DB11DBC01CD0142E055
:10048000660F771F881F991F4A95D1F708952FB7D8
:10049000F89460919B0170919C0180919D019091D5
:1004A0009E012FBF08952F923F924F925F926F92BD
:1004B0007F928F929F92AF92BF92CF92DF92EF92F4
:1004C000FF920F931F93CF93DF9300D01F92CDB76E
:1004D000DEB79B838A836B013A01122F0983F12CCB
:1004E0008E2C912CA12CB12CAA81BB81ED91FC9179
:1004F00011970190F081E02D01E0212FA301B601B9
:10050000CD0109950E9447021B012C010E94470260
:10051000DC01CB0182199309A409B5098815990555
:10052000AA05BB05D8F4AA81BB81ED91FC91119776
:100530000480F581E02DCD010995882339F32091C0
:10054000E7013091E8012C153D0519F0C114D104E3
:10055000E9F690919701911106C0D8CFF394B98133
:10056000BF1510F680E00F900F900F90DF91CF91A4
:100570001F910F91FF90EF90DF90CF90BF90AF90C1
:100580009F908F907F906F905F904F903F902F90B3
:1005900008951F920F920FB60F9211242F933F933D
:1005A0008F939F93AF93BF9380919B0190919C01F8
:1005B000A0919D01B0919E0130919A0123E0230FFB
:1005C0002D3720F40196A11DB11D05C026E8230F8B
:1005D0000296A11DB11D20939A0180939B019093D7
:1005E0009C01A0939D01B0939E0180919F019091E9
:1005F000A001A091A101B091A2010196A11DB11D80
:1006000080939F019093A001A093A101B093A201B8
:10061000BF91AF919F918F913F912F910F900FBEFE
:100620000F901F9018951F920F920FB60F921124E2
:100630002F933F934F935F936F937F938F939F93EA
:10064000AF93BF93EF93FF93E0910201F091030109
:100650000995FF91EF91BF91AF919F918F917F91FC
:100660006F915F914F913F912F910F900FBE0F901F
:100670001F9018951F920F920FB60F9211242F936F
:100680003F934F935F936F937F938F939F93AF931A
:10069000BF93EF93FF93E0910001F0910101099561
:1006A000FF91EF91BF91AF919F918F917F916F914A
:1006B0005F914F913F912F910F900FBE0F901F9020
:1006C00018951F920F920FB60F9211248F930FB6A9
:1006D000F894A895809160008861809360001092E2
:1006E00060000FBE8F910F900FBE0F901F90189556
:1006F0008EBD00000DB407FEFDCF8EB508950F939B
:100700001F93CF93DF9300D0CDB7DEB78C01DC0110
:10071000ED91FC910688F789E02D4A83698309955C
:100720006981862F80680E9478034A81842F0E9405
:100730007803D801ED91FC91008CF18DE02DC8017A
:100740000F900F90DF91CF911F910F9109941F93FC
:10075000CF93DF93EC01162F611102C045E501C074
:100760004DE56AE5CE010E947F03111102C040E70A
:1007700001C04CE76CE5CE01DF91CF911F910C9445
:100780007F03EF92FF921F93CF93DF931F92CDB71A
:10079000DEB77C01DC01ED91FC910688F789E02D44
:1007A000698309956981862F8F770E94780380E09D
:1007B0000E947803182FD701ED91FC91008CF18DE8
:1007C000E02DC7010995812F0F90DF91CF911F91E7
:1007D000FF90EF900895CF93DF93EC01698761114B
:1007E00002C04AE101C04FE063E1CE010E947F03F5
:1007F0008985882341F061E1CE010E94C1038F7198
:10080000482F406602C04885406861E1CE01DF9113
:10081000CF910C947F03CF93DF93EC011092A6014C
:100820001092E8011092E7011092A4011092A30126
:10083000109298011092A501109297011092A801B0
:100840001092A70168E20E94C10382FF0AC06DE313
:10085000CE010E94C103482F44606DE3CE010E9487
:100860007F0340E465E2CE010E947F03E881F981C5
:100870000288F389E02D63E0CE01DF91CF910994E6
:10088000CF93DF93209187022330C9F42091980100
:10089000211115C0EC0164E20E94C10390E0919522
:1008A000819591098C349F4F54F4E881F981028835
:1008B000F389E02D61E0CE01099581E001C080E07F
:1008C000DF91CF9108954F925F926F927F928F92B6
:1008D0009F92AF92BF92CF92DF92EF920F931F93AE
:1008E000CF93DF93EC014B01142F1092A501C09020
:1008F000E701D090E801A090A701B090A8016DE3B6
:100900000E94C103482F44606DE3CE010E947F0323
:100910000E9447022B013C01CE010E944004882323
:1009200029F1D092E801C092E701E881F9810684BB
:10093000F785E02DEE24E39400E0212FA401B60119
:10094000CE010995B092A801A092A701DF91CF91A5
:100950001F910F91EF90DF90CF90BF90AF909F903D
:100960008F907F906F905F904F9008950E94470204
:10097000DC01CB0184199509A609B709883E93408B
:10098000A105B10570F6E881F9810480F581E02DBB
:10099000CE010995C1CF4F925F926F927F92AF9235
:1009A000BF92CF92DF92EF920F931F93CF93DF937B
:1009B000EC016B015A01122F6DE30E94C103482F15
:1009C00044606DE3CE010E947F030E9447022B0129
:1009D0003C01CE010E9440048823C9F0E881F981DE
:1009E0000684F785E02DE12C212FA501B601CE016B
:1009F0000995DF91CF911F910F91EF90DF90CF90EC
:100A0000BF90AF907F906F905F904F9008950E943D
:100A10004702DC01CB0184199509A609B709883E74
:100A20009340A105B105D0F6E881F9810480F581F4
:100A3000E02DCE010995CDCFCF93DF93EC0160324D
:100A400008F06FE168878985882311F066956887CB
:100A500061E1CE010E94C103807E9885482F492B19
:100A600061E1CE01DF91CF910C947F031F93CF936F
:100A7000DF9320918702621709F45DC0162FEC0105
:100A80006230E9F168F4662309F440C0613009F08E
:100A900052C061E00E94C103837E482F44603BC086
:100AA0006330B9F0643009F046C061E00E94C103D0
:100AB000837E482F4C6061E0CE010E947F038985D0
:100AC000882369F1E881F9810488F589E02D61E0E6
:100AD00013C061E00E94C103837E482F406161E042
:100AE000CE010E947F0389858823C9F0E881F981BE
:100AF0000488F589E02D60E0CE01099510C061E021
:100B00000E94C103837E482F486005C061E00E94B7
:100B1000C103482F437E61E0CE010E947F03809194
:100B20008702811106C067E2CE010E94C10387FFE0
:100B3000F6CF10938702DF91CF911F9108951F93F5
:100B4000CF93DF93EC0180919901882371F110928A
:100B50009901809187028330D1F468E2CE010E942E
:100B6000C10382FD3DC013C0F0E0E755FE4F108287
:100B7000E881F981008CF18DE02DCE010995E881A5
:100B8000F9810288F389E02D63E0CE01099564E2E2
:100B9000CE010E94C10390E09195819591099595B0
:100BA00087959093A8018093A70180918702833055
:100BB00071F480919801882389F0E881F981028895
:100BC000F389E02D61E0CE01099581E092C0E881D2
:100BD000F9810088F189E02DCE01099580E089C076
:100BE000E881F9810288F389E02D61E0CE01099561
:100BF000E881F9810688F789E02DCE01099580E02A
:100C00000E94780380E00E947803182F833408F054
:100C100012E41093980180E00E94780390E0909392
:100C2000A4018093A30180E00E94780390E0909358
:100C3000E8018093E70180E00E947803282F2C7060
:100C400090E4299FA00111242091A3013091A401D7
:100C5000242B352B3093A4012093A301982F93705C
:100C60004091E7015091E801592B5093E8014093DE
:100C7000E7019F81911107C04D815E8124173507DF
:100C800011F0232B11F4133088F410929801E881AD
:100C9000F981008CF18DE02DCE010995E881F98173
:100CA0000088F189E02DCE0109957FCF1350109374
:100CB000A601982F907890939701982F9074909315
:100CC000A501E881F9810484F585E02D682FCE0126
:100CD000099510E0E091A6011E1708F045CF80E0CD
:100CE0000E947803E12FF0E0E755FE4F80831F5FFD
:100CF000F1CFDF91CF911F910895AF92BF92CF9224
:100D0000DF92EF92FF920F931F93CF93DF93EC014B
:100D10006B01B42EA52EF22E102FE881F9810288E6
:100D2000F389E02D61E0099567E2CE010E94C103DD
:100D300087FFFACF0F2D0E3308F00DE3E11004C04A
:100D4000112321F010E403C010E801C010E08FEF80
:100D5000C816D10451F048F0C6018827937026E0E8
:100D6000969587952A95E1F7182B2D813E812F3F87
:100D7000310521F018F022273370132BE881F98117
:100D80000688F789E02DCE01099580E80E94780356
:100D900083E0800F0E9478038C2D0E9478038D8160
:100DA0000E947803812F0E9478031B2DEB2CFA2CD4
:100DB0008E2D811B801730F4F70181917F010E94F5
:100DC0007803F6CFE881F981008CF18DE02DCE011A
:100DD0000995E881F9810288F389E02D64E0CE016C
:100DE000099568E2CE010E94C10383FFFACFE88132
:100DF000F9810288F389E02D61E0CE01DF91CF9186
:100E00001F910F91FF90EF90DF90CF90BF90AF9028
:100E100009940895CF92DF92EF92FF920F931F9360
:100E2000CF93DF936C017A018B01C0E0D0E0CE1547
:100E3000DF0589F0D8016D918D01D601ED91FC910E
:100E40000190F081E02DC6010995892B11F47E01F6
:100E500002C02196ECCFC701DF91CF911F910F9176
:100E6000FF90EF90DF90CF9008958AEE91E00E947E
:100E7000BD0021E0892B09F420E0822F08950E9413
:100E8000D50E0F931F93CF93DF93EC018881998147
:100E9000009729F02A813B812617370788F48B01B8
:100EA0006F5F7F4F0E940B0E009761F099838883DC
:100EB0001B830A832C813D81232B11F4FC011082BA
:100EC00081E001C080E0DF91CF911F910F910895E3
:100ED000EF92FF920F931F93CF93DF93EC017B016F
:100EE0008A01BA010E9441072881398181110DC010
:100EF0002115310519F0C9010E94730D198218825C
:100F00001D821C821B821A8206C01D830C83B701BE
:100F1000C9010E94E30ECE01DF91CF911F910F9185
:100F2000FF90EF900895FC011182108213821282CB
:100F3000158214826115710551F0FB0101900020AA
:100F4000E9F73197AF01461B570B0C9468070895DA
:100F500090E0FC01EC55FF4F2491FC01E057FF4F5E
:100F60008491882399F090E0880F991FFC01EA573B
:100F7000FF4FA591B491FC01E458FF4F85919491E6
:100F80008FB7F894EC91E22BEC938FBF0895EF921A
:100F9000FF920F931F93CF93DF93EC0161E088E8FA
:100FA00092E00E9436052097C1F088E892E00E9406
:100FB00015028EEB0E9478038E017E0180E1E80E1F
:100FC000F11CF80181918F010E9478030E151F0515
:100FD000C1F788E892E00E9407026DE388E892E09A
:100FE0000E94C1038E7F41E0CD2B09F440E0482BE5
:100FF0006DE388E892E0DF91CF911F910F91FF9010
:10100000EF900C947F03009769F0FC0101900020A1
:10101000E9F73197AF01481B590BBC018AEE91E00B
:101020000C940A0780E090E008958F929F92AF920F
:10103000BF920F931F93CF93DF93CDB7DEB7A197E6
:101040000FB6F894DEBF0FBECDBF19A2423008F430
:101050004AE08E010F5D1F4F842E912CA12CB12CE4
:10106000A50194010E94B60CE62FB901CA010150F6
:101070001109EA3014F4E05D01C0E95CD801EC9399
:10108000232B242B252B61F7C8010E940308A1966E
:101090000FB6F894DEBF0FBECDBFDF91CF911F9189
:1010A0000F91BF90AF909F908F900895CF92DF9255
:1010B000EF92FF92CF93DF936B017C01E091EA0105
:1010C000F091EB010190F081E02D6DE28AEE91E06C
:1010D0000995EC0166277727CB016C197D098E09EC
:1010E0009F094AE00E9415088C0F9D1FDF91CF9148
:1010F000FF90EF90DF90CF900895CF93DF932091F2
:101100009A0230919B02232B79F0FC01C091960248
:10111000D091970260817181CE010E94EA0E009702
:1011200019F08C1B9D0B02C08FEF9FEFDF91CF91C9
:101130000895CF93DF93BC01990F880B990B97FF0C
:1011400003C00E94560803C04AE00E941508EC0143
:101150008FE691E00E9403088C0F9D1FDF91CF91D5
:1011600008950F931F930E9447026093F2017093BA
:10117000F3018093F4019093F501E091EA01F0917D
:10118000EB010284F385E02D8AEE91E0099597FF4B
:101190001FC00E9447020091F2011091F3012091BB
:1011A000F4013091F501DC01CB01801B910BA20B06
:1011B000B30B0091EE011091EF012091F0013091FD
:1011C000F10180179107A207B307B8F28FEF9FEFE5
:1011D0001F910F91089580919602909197020C941F
:1011E000730DCF93DF93CDB7DEB7E0970FB6F894CA
:1011F000DEBF0FBECDBF789484B5826084BD84B558
:10120000816084BD85B5826085BD85B5816085BD01
:1012100080916E00816080936E00109281008091B9
:101220008100826080938100809181008160809341
:101230008100809180008160809380008091B10066
:1012400084608093B1008091B00081608093B00091
:1012500080917A00846080937A0080917A00826025
:1012600080937A0080917A00816080937A008091E7
:101270007A00806880937A001092C1008FE00E940B
:10128000A807E091FA01F091FB0182E08083E091F0
:10129000F601F091F7011082E091F801F091F90167
:1012A00080E1808310920202E091FE01F091FF0143
:1012B00086E08083E091FC01F091FD0180818061F6
:1012C0008083E091FC01F091FD0180818860808342
:1012D000E091FC01F091FD01808180688083E091C4
:1012E000FC01F091FD0180818F7D808380918B02D4
:1012F000823021F0833021F08FEF03C080E001C005
:1013000081E080938C028EE29E012F5F3F4F690146
:10131000F901282F11922A95E9F791E0998324E0A9
:101320002A8332E03B8393E09D833E832F8330E426
:10133000388725E029879A8796E09B8793E39C87E7
:1013400027E02D8798E09F8799E0998B99E19B8B07
:1013500092E49C8B45E24D8B3E8B36E23F8B288F8F
:1013600028E2298F20E12A8F29E22B8F2CED2C8F68
:101370008D8F88E88E8F8FE28F8F8DE288A380E338
:1013800089A327E32BA320E92CA328E32DA39EA365
:101390009CE39FA39FE898A79DE399A792E19AA752
:1013A0009FE69BA78CA78FEF8DA784EE8E8780EC9E
:1013B000888B84E68AA361E080918A020E94BB0147
:1013C00080918A020E94A807BFB6F8948091E90133
:1013D000811124C0EAE9F0E08491EEEAF0E0949112
:1013E000E82FF0E0EE0FFF1FEA57FF4FA591B491F1
:1013F000EC91E92321F461E08AE00E94BB018AE0DC
:101400000E94A8078CB580618CBD8CB580648CBDB2
:101410008DE00E94A8078BE00E94A8078091E90157
:101420008F5F8093E901BFBE80E5809394021092A4
:1014300095020E9447024B015C014AEA6FE288E88C
:1014400092E00E947F036FE288E892E00E94C1036D
:101450008A3A61F00E944702DC01CB0188199909A0
:10146000AA09BB09C297A105B10538F30E9447023A
:101470004B015C0145E56FE288E892E00E947F0342
:101480006FE288E892E00E94C103853561F00E9416
:101490004702DC01CB0188199909AA09BB09C29747
:1014A000A105B10538F3B12CF601EB0DF11DEB0DE3
:1014B000F11D60816F3F39F0418188E892E00E9420
:1014C0007F03B394F1CF80E090E00E94C707609162
:1014D000910288E892E00E94EB0361E088E892E0E4
:1014E0000E9436050E9447024B015C0167E288E8D2
:1014F00092E00E94C10387FD0CC00E944702DC01FC
:10150000CB0188199909AA09BB09C297A105B105A0
:1015100068F30E944702DC01CB0188199909AA09E6
:10152000BB09C297A105B10518F580918C028230E4
:10153000C8F4E82FF0E0EE0FFF1FE050FF4F2EE55C
:1015400031E031832083813039F0809169008360FC
:1015500080936900E89A06C0809169008C6080934E
:101560006900E99A82E090E090938E0280938D0268
:1015700061E088E892E00E94EB038CE391E00E9436
:10158000C7078EE00E94A80782E00E94A80761E0DA
:101590008EE00E94BB0160E082E00E94BB018AEE07
:1015A00091E00E94BD00892B09F4EDC061E771E074
:1015B000C6010E9493070E94B10897FD1BC08FA728
:1015C00018AAAD80BE803FEFA31AB30AB501C601C9
:1015D0000E944107882379F329813A818D819E8178
:1015E000BE01615D7F4F820F931F0E94E30EBE829A
:1015F000AD82E1CF80919602909197020097C9F059
:1016000069817A816115710591F04091980250913C
:1016100099022D813E814217530748F00E94E30E44
:101620008D819E8190939B0280939A0218C00E94A4
:10163000730D89819A8190939702809396028B8192
:101640009C8190939902809398028D819E819093C2
:101650009B0280939A021A8219821C821B821E822C
:101660001D8289819A810E94730D6DE471E0C6012B
:101670000E949307C6010E947D085C0189819A81BE
:101680000E94730DAB20A09481F18FE491E00E9441
:10169000030888E892E00E94400490E00E949908C4
:1016A0008AE591E00E94030864E288E892E00E94E3
:1016B000C10390E0919581959109959587950E9438
:1016C00099083EE1E32E02E022E041E651E061E0CC
:1016D00070E088E892E00E94530284E691E00E9464
:1016E00003088FE691E00E94030862E771E0C601FB
:1016F0000E949307C6010E947D085C0189819A813E
:101700000E94730DAB20A094B1F161E08FE00E94C4
:10171000BB010E9422022B013C0184E6882E912C01
:10172000A12CB12C0E942202DC01CB018419950965
:10173000A609B709883E9340A105B10558F0E1E03C
:101740008E1A9108A108B108F8EE4F0EF3E05F1E63
:10175000611C711C81149104A104B10419F760E0AB
:101760008FE00E94BB0184E791E00E9403088FE6AE
:1017700091E00E94030840E050E061E771E086E9F3
:1017800092E00E94680788E892E00E949F05882303
:1017900009F457C0E091EA01F091EB010190F0816A
:1017A000E02D6BE58AEE91E009956091E70170917B
:1017B000E80180E090E04AE00E94150888E791E0A7
:1017C0000E94030889EA91E00E9403088BE791E0F8
:1017D0000E9403086091A7017091A801072E000CD8
:1017E000880B990B97FF03C00E94560803C04AE07C
:1017F0000E94150888E891E00E9403088FE691E0B6
:101800000E9403088091A601823061F48091A901B1
:10181000883441F48091AA01893621F461E08FE097
:101820000E94BB018091A501882359F02091A3015A
:101830003091A40180918D0290918E022817390772
:1018400059F088E892E00E949F058AEE91E00E949C
:1018500031010E945301A3CE40E061E771E088E8C6
:1018600092E00E9463048AE891E00E940308E9CFB5
:10187000EAEEF1E01382128288EE93E0A0E0B0E09D
:1018800084839583A683B7838EE091E091838083E0
:1018900085EC90E09587848784EC90E09787868735
:1018A00080EC90E0918B808B81EC90E0938B828B2D
:1018B00082EC90E0958B848B86EC90E0978B868B06
:1018C000118E128E138E148E61E771E086E992E01C
:1018D0000E949307E8E8F2E080E291E09183808340
:1018E00080E5848715868EE0828385E0838381E0AE
:1018F0008093870217829FE19087818708952F92B6
:101900003F924F925F926F927F928F929F92AF928F
:10191000BF92CF92DF92EF92FF920F931F93CF93DC
:10192000DF93CDB7DEB7CA1BDB0B0FB6F894DEBF73
:101930000FBECDBF09942A88398848885F846E8499
:101940007D848C849B84AA84B984C884DF80EE80E3
:10195000FD800C811B81AA81B981CE0FD11D0FB6EC
:10196000F894DEBF0FBECDBFED010895A1E21A2E9F
:10197000AA1BBB1BFD010DC0AA1FBB1FEE1FFF1F33
:10198000A217B307E407F50720F0A21BB30BE40B83
:10199000F50B661F771F881F991F1A9469F76095CA
:1019A0007095809590959B01AC01BD01CF01089584
:1019B000EE0FFF1F0590F491E02D0994CF93DF9374
:1019C0008230910510F482E090E0E0919E02F09167
:1019D0009F0220E030E0C0E0D0E0309711F140817C
:1019E000518148175907C0F04817590761F482819F
:1019F0009381209719F09B838A832BC090939F0239
:101A000080939E0226C02115310519F04217530715
:101A100018F49A01BE01DF01EF010280F381E02D8D
:101A2000DCCF2115310509F1281B390B2430310594
:101A300090F412968D919C9113976115710521F088
:101A4000FB019383828304C090939F0280939E0244
:101A5000FD01329644C0FD01E20FF31F8193919383
:101A6000225031092D933C933AC020919C02309131
:101A70009D02232B41F42091060130910701309300
:101A80009D0220939C0220910401309105012115B3
:101A9000310541F42DB73EB740910801509109013D
:101AA000241B350BE0919C02F0919D02E217F30795
:101AB000A0F42E1B3F0B2817390778F0AC014E5FBE
:101AC0005F4F2417350748F04E0F5F1F50939D025C
:101AD00040939C028193919302C0E0E0F0E0CF013B
:101AE000DF91CF9108950F931F93CF93DF930097CA
:101AF00009F48CC0FC0132971382128200919E027D
:101B000010919F020115110581F420813181820F0E
:101B1000931F20919C0230919D022817390779F577
:101B2000F0939D02E0939C0271C0D80140E050E028
:101B3000AE17BF0750F412962D913C911397AD014B
:101B40002115310509F1D901F3CF9D01DA01338364
:101B5000228360817181860F971F8217930769F432
:101B6000EC0128813981260F371F2E5F3F4F3183CB
:101B700020838A819B8193838283452B29F4F09370
:101B80009F02E0939E0242C01396FC93EE9312973D
:101B9000ED01499159919E01240F351FE217F3077A
:101BA00071F480819181840F951F029611969C9308
:101BB0008E938281938113969C938E931297E0E08B
:101BC000F0E0D80112968D919C911397009719F02F
:101BD000F8018C01F6CF8D919C9198012E5F3F4FBB
:101BE000820F931F20919C0230919D022817390784
:101BF00069F4309729F410929F0210929E0202C05D
:101C00001382128210939D0200939C02DF91CF9168
:101C10001F910F910895A0E0B0E0E1E1FEE00C9487
:101C2000830CEC01009721F4CB010E94DE0CB8C0BC
:101C3000FC01E60FF71F9C0122503109E217F30760
:101C400008F4ACC0D9010D911C9111970617170724
:101C5000B0F00530110508F49FC0C801049786173D
:101C6000970708F499C002501109061B170B01933E
:101C700011936D937C93CF010E94730D8DC05B0116
:101C8000A01AB10A4C01800E911EA0919E02B09143
:101C90009F0240E050E0E12CF12C109709F44AC07B
:101CA000A815B905D1F56D907C901197630182E07C
:101CB000C80ED11CCA14DB0480F1A3014A195B09C8
:101CC0006A0182E0C80ED11C1296BC90129713963E
:101CD000AC91B5E0CB16D10440F0B282A38351831E
:101CE0004083D9016D937C930AC00E5F1F4FC301DF
:101CF000800F911FF90191838083EB2DFA2FE1145E
:101D0000F10431F0D7011396FC93EE93129744C07F
:101D1000F0939F02E0939E023FC08D919C9111979A
:101D20004817590708F4AC017D0112960D90BC913B
:101D3000A02DB3CF80919C0290919D0288159905AA
:101D4000E1F446175707C8F480910401909105010A
:101D5000009741F48DB79EB7409108015091090159
:101D6000841B950BE817F907C8F4F0939D02E093E4
:101D70009C02F901718360830FC0CB010E94DE0CCD
:101D80007C01009759F0A801BE010E94DA0ECE0135
:101D90000E94730DC70104C0CE0102C080E090E034
:101DA000CDB7DEB7EEE00C949F0C81E090E0F894A4
:101DB0000C94040FFB01DC0102C001900D92415014
:101DC0005040D8F70895FB01DC0101900D920020EE
:101DD000E1F70895FB0151915523A9F0BF01DC0102
:101DE0004D9145174111E1F759F4CD0101900020C3
:101DF00049F04D9140154111C9F3FB014111EFCF5D
:101E000081E090E00197089510E0CDE5D0E004C0B6
:101E1000FE010E94D80C2196CE35D107C9F7F8945F
:021E2000FFCFF2
:101E22005D015D010000A002800000000000EA00E8
:101E32000A078C003101BD009B00AF0000000000CA
:101E4200CB0453029F056304EB031C0562017D066C
:101E52000B043605A703150207020E0073616D70AD
:101E62006C65456E63727970744B657900720043DC
:101E7200616E2053656E643F2000525353493A20ED
:101E82000048690048492053656E742E2E2E000DBD
:101E92000A0077004F4646005D20002020205B525A
:101EA200585F525353493A005D00202D2041434B65
:061EB2002073656E740050
:00000001FF
